:100000000C942A000C9447000C9447000C94470071
:100010000C9447000C9447000C94B1010C948A0195
:100020000C9463010C943C010C9447000C94470021
:100030000C9447000C9488000C94AF000C94D600EC
:100040000C9447000C9447000C9447000C94470014
:100050000C94470011241FBECFE5D8E0DEBFCDBF12
:1000600010E0A0E6B0E0EAEBF0E102C005900D92EE
:10007000A238B107D9F710E0A2E8B0E001C01D92A4
:10008000A139B107E1F70E94FC070C945B080C94BE
:1000900000005498089553980895549A0895539AD7
:1000A000089581B58F7B81BD81B58F7E81BD81B57E
:1000B0008F7D81BD81B5877F81BD81B5826081BD26
:1000C00081B5846081BD529887E689B9539A549A64
:1000D00008955D9BFECFE9E2F0E0838308955F9B86
:1000E000FECF8CB10895579A0895569A0895559A5F
:1000F000089590938B0080938A00089590938F00C9
:1001000080938E00089590938D0080938C000895C5
:100110001F920F920FB60F9211242F933F934F937C
:100120005F936F937F938F939F93AF93BF93EF935F
:10013000FF93E0918A00F0918B000995FF91EF9178
:10014000BF91AF919F918F917F916F915F914F91EF
:100150003F912F910F900FBE0F901F9018951F92F7
:100160000F920FB60F9211242F933F934F935F93EB
:100170006F937F938F939F93AF93BF93EF93FF936F
:10018000E0918E00F0918F000995FF91EF91BF9162
:10019000AF919F918F917F916F915F914F913F911F
:1001A0002F910F900FBE0F901F9018951F920F92D6
:1001B0000FB60F9211242F933F934F935F936F933A
:1001C0007F938F939F93AF93BF93EF93FF93E091B0
:1001D0008C00F0918D000995FF91EF91BF91AF9147
:1001E0009F918F917F916F915F914F913F912F914F
:1001F0000F900FBE0F901F9018958FB58F7B8FBDFE
:100200008FB580688FBD8FB58F7E8FBD8FB58062B3
:100210008FBD8FB58E7F8FBD8FB582608FBD8EB540
:1002200088608EBD8EB580618EBD8EB58E7F8EBD91
:100230008EB58D7F8EBD8EB584608EBD08959BBDBD
:100240008ABD089599BD88BD089597BD86BD08955E
:10025000909383008093820008959093850080930B
:10026000840008959093870080938600089590936A
:1002700089008093880008951F920F920FB60F9205
:1002800011242F933F934F935F936F937F938F939B
:100290009F93AF93BF93EF93FF93E0918200F09110
:1002A00083000995FF91EF91BF91AF919F918F913D
:1002B0007F916F915F914F913F912F910F900FBE62
:1002C0000F901F9018951F920F920FB60F92112446
:1002D0002F933F934F935F936F937F938F939F934E
:1002E000AF93BF93EF93FF93E0918400F09185006B
:1002F0000995FF91EF91BF91AF919F918F917F9160
:100300006F915F914F913F912F910F900FBE0F9082
:100310001F9018951F920F920FB60F9211242F93D2
:100320003F934F935F936F937F938F939F93AF937D
:10033000BF93EF93FF93E0918600F09187000995BA
:10034000FF91EF91BF91AF919F918F917F916F91AD
:100350005F914F913F912F910F900FBE0F901F9083
:1003600018951F920F920FB60F9211242F933F935F
:100370004F935F936F937F938F939F93AF93BF93AD
:10038000EF93FF93E0918800F09189000995FF9128
:10039000EF91BF91AF919F918F917F916F915F91FD
:1003A0004F913F912F910F900FBE0F901F90189576
:1003B000813009F1813030F08230B1F1833009F0C1
:1003C00064C04BC0442359F02AB381E090E002C0DE
:1003D000880F991F6A95E2F7282B2ABB08952AB344
:1003E00081E090E002C0880F991F6A95E2F780953E
:1003F00082238ABB0895442359F027B381E090E01B
:1004000002C0880F991F6A95E2F7282B27BB089531
:1004100027B381E090E002C0880F991F6A95E2F748
:100420008095822387BB0895442359F024B381E04B
:1004300090E002C0880F991F6A95E2F7282B24BB31
:10044000089524B381E090E002C0880F991F6A9557
:10045000E2F78095822384BB0895442359F021B3A9
:1004600081E090E002C0880F991F6A95E2F7282B7F
:1004700021BB089521B381E090E002C0880F991F4D
:100480006A95E2F78095822381BB0895813009F156
:10049000813030F08230B1F1833009F064C04BC05C
:1004A000442359F02BB381E090E002C0880F991FDC
:1004B0006A95E2F7282B2BBB08952BB381E090E0DF
:1004C00002C0880F991F6A95E2F7809582238BBB43
:1004D0000895442359F028B381E090E002C0880FCA
:1004E000991F6A95E2F7282B28BB089528B381E06D
:1004F00090E002C0880F991F6A95E2F780958223E9
:1005000088BB0895442359F025B381E090E002C0F0
:10051000880F991F6A95E2F7282B25BB089525B30C
:1005200081E090E002C0880F991F6A95E2F78095FC
:10053000822385BB0895442359F022B381E090E0E3
:1005400002C0880F991F6A95E2F7282B22BB0895F5
:1005500022B381E090E002C0880F991F6A95E2F70C
:100560008095822382BB0895813051F0813030F034
:10057000823041F0833079F080E0089589B303C080
:1005800086B301C083B390E002C0959587956A95C4
:10059000E2F78170089580B390E002C09595879549
:1005A0006A95E2F781700895813091F0813028F0EA
:1005B0008230C9F0833061F521C02BB381E090E037
:1005C00002C0880F991F6A95E2F728272BBB089570
:1005D00028B381E090E002C0880F991F6A95E2F786
:1005E000282728BB089525B381E090E002C0880F3A
:1005F000991F6A95E2F7282725BB089522B381E069
:1006000090E002C0880F991F6A95E2F7282722BB65
:100610000895813049F0813028F0823039F08330FC
:1006200041F406C06ABB089567BB089564BB089592
:1006300061BB0895813049F0813028F0823039F073
:10064000833041F406C06BBB089568BB089565BB59
:10065000089562BB0895813079F0813028F08230AE
:1006600099F0833001F518C08BB38F708BBB8BB3BF
:10067000607F862B8BBB089588B38F7088BB88B34F
:10068000607F862B88BB089585B38F7085BB85B34B
:10069000607F862B85BB089582B38F7082BB82B347
:1006A000607F862B82BB0895613021F5813071F027
:1006B000813030F0823081F0833009F043C012C0C5
:1006C0008BB38F708BBB8BB3407F22C088B38F708E
:1006D00088BB88B3407F24C085B38F7085BB85B34A
:1006E000407F26C082B38F7082BB82B3407F842B51
:1006F00082BB0895813079F0813028F0823099F002
:10070000833001F518C08BB3807F8BBB8BB34F70E8
:10071000842B8BBB089588B3807F88BB88B34F70D0
:10072000842B88BB089585B3807F85BB85B34F70CC
:10073000842B85BB089582B3807F82BB82B34F70C8
:10074000842B82BB0895382F883008F074C0413064
:10075000B1F5613099F0613030F06230D1F0633042
:1007600009F069C021C02AB381E090E002C0880F7F
:10077000991F3A95E2F7282B2ABB5BC027B381E08B
:1007800090E002C0880F991F3A95E2F7282B27BB0B
:1007900050C024B381E090E002C0880F991F3A95C1
:1007A000E2F7282B24BB45C021B381E090E002C0D2
:1007B000880F991F3A95E2F7282B21BB3AC04423B2
:1007C000D1F5613099F0613028F06230D9F06330B2
:1007D00091F524C02AB381E090E002C0880F991FF0
:1007E0003A95E2F7809582238ABB23C027B381E044
:1007F00090E002C0880F991F3A95E2F78095822316
:1008000087BB17C024B381E090E002C0880F991F16
:100810003A95E2F78095822384BB0BC021B381E037
:1008200090E002C0880F991F3A95E2F780958223E5
:1008300081BB81E0089580E00895382F883008F06A
:100840007AC0613029F1613038F0623009F43CC07F
:10085000633009F070C053C0413059F42BB381E0CC
:1008600090E002C0880F991F3A95E2F7282B2BBB26
:1008700060C0442309F05FC02BB381E090E002C068
:10088000880F991F3A95E2F7809582238BBB51C060
:10089000413059F428B381E090E002C0880F991FDD
:1008A0003A95E2F7282B28BB44C0442309F043C003
:1008B00028B381E090E002C0880F991F3A95E2F7D3
:1008C0008095822388BB35C0413059F425B381E03F
:1008D00090E002C0880F991F3A95E2F7282B25BBBC
:1008E00028C0442341F525B381E090E002C0880F81
:1008F000991F3A95E2F78095822385BB1AC0413053
:1009000059F422B381E090E002C0880F991F3A9514
:10091000E2F7282B22BB0DC0442369F422B381E007
:1009200090E002C0880F991F3A95E2F780958223E4
:1009300082BB81E0089580E00895813049F08130E4
:1009400028F0823039F0833041F406C06BBB089543
:1009500068BB089565BB089562BB0895813049F076
:10096000813028F0823039F0833041F406C06ABB10
:10097000089567BB089564BB089561BB08958130F5
:1009800079F0813028F0823099F0833001F518C079
:100990008BB38F708BBB8BB3607F862B8BBB089523
:1009A00088B38F7088BB88B3607F862B88BB08951F
:1009B00085B38F7085BB85B3607F862B85BB08951B
:1009C00082B38F7082BB82B3607F862B82BB089517
:1009D000EF92FF921F93182F81E061E041E00E94A7
:1009E0001D0482E061E040E00E941D0480E0612F70
:1009F0000E94BF0483E061E041E00E941D0480E4A6
:100A0000E82E8FE1F82EC7010197F1F783E061E04E
:100A100040E00E941D041295107F80E0612F0E942B
:100A2000BF0483E061E041E00E941D04C70101971B
:100A3000F1F783E061E040E00E941D041F91FF9008
:100A4000EF900895AF92BF92CF92DF92EF92FF9214
:100A50000F931F93DF93CF93CDB7DEB72C970FB6CD
:100A6000F894DEBF0FBECDBF6B017C0110E05E01CC
:100A70000894A11CB11C1DC0C501810F911D9C874C
:100A80008B87C701B6012AE030E040E050E00E94C9
:100A90003908EB85FC856083C701B6012AE030E0A8
:100AA00040E050E00E943908C901DA016C017D0183
:100AB0001F5FC114D104E104F104F1F6012F0150CC
:100AC000E02EFF24E7FCF094EA0CFB1C09C0F701C0
:100AD0008081805D0E94E80401500894E108F108DB
:100AE00007FFF5CF2C960FB6F894DEBF0FBECDBF33
:100AF000CF91DF911F910F91FF90EF90DF90CF90FA
:100B0000BF90AF900895EF92FF921F93182F81E04E
:100B100061E040E00E941D0482E061E040E00E944C
:100B20001D0480E0612F0E94BF0483E061E041E08A
:100B30000E941D0490E4E92E9FE1F92EC701019760
:100B4000F1F783E061E040E00E941D041295107F00
:100B500080E0612F0E94BF0483E061E041E00E94D9
:100B60001D04C7010197F1F783E061E040E00E94B6
:100B70001D041F91FF90EF900895813029F4862F76
:100B800080580E9483050895823021F4862F805476
:100B90000E94830508950F931F93CF93DF93EC0179
:100BA00000E010E014C00E94E8040F5F003138F04C
:100BB000103138F481E0612F0E94BD051F5F1031B4
:100BC00030F0105180E0612F0E94BD051F5EFE01D4
:100BD000E00FF11D8081882331F7DF91CF911F91C4
:100BE0000F91089580E06FEF0E94AE0481E061E014
:100BF00041E00E94A30382E061E041E00E94A30380
:100C000083E061E041E00E94A30308950F931F93E6
:100C100084E060E041E00E94A30385E060E041E001
:100C20000E94A30386E060E041E00E94A30387E006
:100C300060E041E00E94A30381E061E041E00E94A6
:100C4000A30382E061E041E00E94A30383E061E04E
:100C500041E00E94A3038CE291E020E931E0F90138
:100C60003197F1F70197D9F788E20E94830580EA6E
:100C70009FE00197F1F78FE00E94830500E41FE1F8
:100C8000C8010197F1F781E00E948305C80101972F
:100C9000F1F786E00E9483051F910F9108950F934D
:100CA000DF93CF9300D000D0CDB7DEB7082F4983B4
:100CB0005A836B837C8389819A810E941F01898179
:100CC0009A810E942201023099F1033030F400230E
:100CD00051F0013009F053C014C0033001F1043069
:100CE00009F04DC038C082E063E041E00E94460256
:100CF00082E064E040E00E94460282E065E041E07C
:100D000037C082E063E040E00E94460282E064E097
:100D100041E00E94460282E065E040E016C082E0C9
:100D200063E041E00E94460282E064E041E01BC0D3
:100D300082E063E040E00E94460282E064E040E03E
:100D40000E94460282E065E041E00E94460282E0A5
:100D500066E041E012C082E063E040E00E944602AB
:100D600082E064E040E00E94460282E065E040E00C
:100D70000E94460282E066E040E00E9446020F9038
:100D80000F900F900F90CF91DF910F91089583E016
:100D900064E041E00E94D80183E065E041E00E9408
:100DA000D80182E063E041E00E94D80182E064E083
:100DB00041E00E94D80182E065E041E00E94D80154
:100DC00082E066E041E00E94D8010E94FD008FEFC2
:100DD00090E00E94250108950E94770008950E94E6
:100DE000750008950E94730008950E946F00089591
:100DF0000E94690008950E9451000895CF92DF92E9
:100E0000EF92FF920F931F93DF93CF93CDB7DEB78F
:100E10002A970FB6F894DEBF0FBECDBF09831A83A1
:100E20002B833C834D835E836F83788789879A8782
:100E3000E981FA81EB80FC800D811E81CF80D8840E
:100E400029853A858FEF90E0AC01249FC001259F52
:100E5000900D349F900D1124805D9F426AE070E0F8
:100E60000E942508AB01E133F10589F581E3E8161D
:100E7000F10469F501331105A1F481E3C816D10429
:100E800009F042C060E070E080E00E944F0681E01F
:100E90000E94830581E060E00E94BD0580E690E04D
:100EA0006BC00033110581F580E3C816D10461F5EC
:100EB00060E070E082E00E944F0681E00E948305BE
:100EC00081E060E00E94BD0588E690E055C0E03317
:100ED000F105D1F480E3E816F104B1F40133110512
:100EE000B1F581E3C816D10491F560E070E083E0CC
:100EF0000E944F0681E00E94830581E060E00E942D
:100F0000BD058EE690E038C0E133F105D1F480E311
:100F1000E816F10499F50033110581F581E3C8164F
:100F2000D10461F560E070E081E00E944F0681E04D
:100F30000E94830581E060E00E94BD0583E790E0A8
:100F40001BC0F097D9F480E3E816F104B9F400333C
:100F50001105A1F480E3C816D10481F460E070E0CB
:100F600084E00E944F0681E00E94830581E060E0FA
:100F70000E94BD058CE790E00E94CB052A960FB633
:100F8000F894DEBF0FBECDBFCF91DF911F910F91BF
:100F9000FF90EF90DF90CF900895CF92DF92EF9285
:100FA000FF920F931F938C010E94F506C82E0E949A
:100FB000F506D82E0E94F506E82E0E94F506F82EBA
:100FC0000E94F506F80180871186F6821782E48276
:100FD0001582D2821382C0821182C8011F910F91A3
:100FE000FF90EF90DF90CF9008950E94FB060E9443
:100FF00006060E94C7060895EF92FF920F931F9373
:10100000DF93CF93CDB7DEB72A970FB6F894DEBF44
:101010000FBECDBF8E010F5F1F4F8AE0F801119206
:101020008A95E9F70E94F5077801C7010E94CD076C
:1010300009811A812B813C814D815E816F81788588
:1010400089859A850E94FE06F0CFAA1BBB1B51E141
:1010500007C0AA1FBB1FA617B70710F0A61BB70B28
:10106000881F991F5A95A9F780959095BC01CD01CD
:101070000895A1E21A2EAA1BBB1BFD010DC0AA1FD9
:10108000BB1FEE1FFF1FA217B307E407F50720F0F1
:10109000A21BB30BE40BF50B661F771F881F991F6C
:1010A0001A9469F760957095809590959B01AC01B5
:0A10B000BD01CF010895F894FFCFB1
:1010BA00466F7277617264005269676874004C65A2
:1010CA006674004261636B776172640053746F7077
:0210DA00000014
:00000001FF
